:100000000C942A000C9447000C9447000C94470071
:100010000C9447000C9447000C9447000C94470044
:100020000C9447000C9447000C9447000C94B802C1
:100030000C9447000C949D000C94C8000C9447004D
:100040000C9447000C9447000C9447000C94470014
:100050000C94470011241FBECFE5D8E0DEBFCDBF12
:1000600010E0A0E6B0E0E8E7F9E002C005900D92EC
:10007000A83CB107D9F713E0A8ECB0E001C01D928D
:10008000A538B107E1F70E9497030C94BA040C94C9
:1000900000001BB88AB188698AB980B5866880BDBE
:1000A00010BC83E389B91092EC001092EB0010921F
:1000B000EA001092E9001092E8001092E70008951B
:1000C000F8948091EA008823B9F0E091EB00F0E029
:1000D000E459FD4F80819091EB009F5F9093EB007E
:1000E0009091EB009F3F11F41092EB009091EA0089
:1000F00091509093EA0001C080E078940895F894BC
:100100009091E70097FD17C0E091E900F0E0E4511D
:10011000FE4F80838091E9008F5F8093E90080919A
:10012000E900803811F41092E9008091E7008F5FB8
:100130008093E700559A789408951F920F920FB616
:100140000F9211248F93EF93FF938091EA008F3FDA
:10015000B9F0E091EC00F0E08CB1E459FD4F808300
:100160008091EC008F5F8093EC008091EC008F3FDA
:1001700011F41092EC008091EA008F5F8093EA0006
:10018000FF91EF918F910F900FBE0F901F901895D8
:100190001F920F920FB60F9211248F93EF93FF933C
:1001A0008091E700882301F18091E7008823E1F046
:1001B000E091E800F0E0E451FE4F80818CB980913D
:1001C000E8008F5F8093E8008091E800803811F4A8
:1001D0001092E8008091E70081508093E7008091C1
:1001E000E700882309F45598FF91EF918F910F90C4
:1001F0000FBE0F901F901895FC01DB0140837783A1
:100200006683138212821582148211828091BF004C
:1002100040FF02C08295807F8C930895FC018FB7C8
:10022000F89413821282758364838FBF0895FC0152
:100230002FB7F89484819581860F971F95838483C7
:100240002FBF0895FC01808167FF02C08D7F01C030
:10025000826080830895FC019FB7F8948081A68115
:10026000B78180FF03C08C918F7002C08C91807F1A
:100270008C9313821282158214829FBF0895FC0111
:100280009FB7F89481E042815381248135814217E0
:10029000530708F480E09FBF08951F93CF93DF9327
:1002A000EC011FB7F8940E943F01882329F0CE018A
:1002B0000E942B011FBF3EC01FBF8881E1E081FD6E
:1002C000E0E0AE81BF8180FF14C08C918F708C9371
:1002D000AE81BF819C91F0E08981EE0FFF1FEE0F90
:1002E000FF1FE80FF11DE154FF4F80818295807F51
:1002F00011C08C91807F8C93AE81BF819C91F0E086
:100300008981EE0FFF1FEE0FFF1FE80FF11DE15473
:10031000FF4F8081892B8C9389818F5F8983843003
:1003200048F019822FB7F8948A819B8101969B83AC
:100330008A832FBFDF91CF911F91089589B7816084
:1003400089BF83B7826083BF0895FF920F931F9385
:10035000CF93DF93EC01FB018A01A901FFB6F8946A
:100360008091BD00992787FD9095C89FD001C99FB6
:10037000B00DD89FB00D1124B093E400A093E3001A
:100380007093E2006093E100089FB001099F700D37
:10039000189F700D11247093E0006093DF0030937C
:1003A000DE002093DD00CB018A1B9B0B97FF03C06F
:1003B000909581959F4F9093DC008093DB009A018C
:1003C0002E1B3F0B37FF03C0309521953F4F3093D5
:1003D000DA002093D900A617B70714F461E001C032
:1003E0006FEF6093D800E417F50714F441E001C003
:1003F0004FEF4093D700821B930B9093D6008093CE
:10040000D5008FEF8093E6008091C9009091CA00DB
:100410000E9422018091CB009091CC006091D70086
:100420000E942201FFBEDF91CF911F910F91FF909B
:10043000089580E090E020E030E0FC01E459FD4FB9
:100440004081442309F49F0101968F3F9105A9F74C
:100450002115310519F480E090E00895EDEEF0E00B
:100460008FEF11928150E9F70E9460008093ED00B8
:100470008823D1F70895EF92FF920F931F93CF93A4
:10048000DF93CDB7DEB728970FB6F894DEBF0FBE67
:10049000CDBF009709F45FC02091BE002223E1F395
:1004A0007E010894E11CF11C28E0F70111922A95C5
:1004B000E9F760E670E00E947F04FC01009709F410
:1004C0004AC0108100E080E090E060E670E00E94A9
:1004D0007F04009761F00E946104E02FF0E0EE0FCE
:1004E000FF1FEE0DFF1D918380830F5FECCF1C3447
:1004F00029F0153599F0143471F510C06B817C81A9
:100500004D815E812F81388589819A810E94A50164
:1005100081E08093E5001092BE001DC08091CD0067
:100520009091CE00153511F461E003C0143419F434
:100530006FEF0E94220169817A818091CD009091B4
:10054000CE000E940E018091CD009091CE000E94BD
:100550003F018823C1F328960FB6F894DEBF0FBE83
:10056000CDBFDF91CF911F910F91FF90EF90089534
:100570001F920F920FB60F9211241F932F933F9348
:100580004F935F936F937F938F939F93AF93BF939B
:10059000CF93DF93EF93FF938091C8008F3008F4DF
:1005A000ADC08091E500882309F49AC0E091E30092
:1005B000F091E4008091DF009091E000E817F907E6
:1005C00061F42091E1003091E2008091DD00909192
:1005D000DE002817390709F47DC02091D50030913D
:1005E000D600C901880F991F9093D4008093D3003F
:1005F0004091D9005091DA0066277727641B750B6C
:10060000681779074CF5241B350B3093D6002093DF
:10061000D5008091D800992787FD9095E80FF91FA4
:10062000F093E400E093E3002091D1003091D200F8
:10063000280F391F3093D2002093D1008091C90038
:100640009091CA0061E070E00E940E018091C900A3
:100650009091CA000E944D012091DB003091DC0096
:100660008091D3009091D400821793070CF044C07E
:100670008091D5009091D600820F931F9093D60061
:100680008093D5002091D700332727FD30958091A6
:10069000E1009091E200820F931F9093E20080931B
:1006A000E1008091CF009091D000820F931F909332
:1006B000D0008093CF008091CB009091CC0061E07E
:1006C00070E00E940E018091CB009091CC000E94BE
:1006D0004D0112C01092E50081E08093BE000CC075
:1006E000C9ECD0E010E089919991009711F00E9437
:1006F0004D011F5F1330B9F71092C8008091C800F8
:100700008F5F8093C800FF91EF91DF91CF91BF91F0
:10071000AF919F918F917F916F915F914F913F9199
:100720002F911F910F900FBE0F901F9018958FEF74
:100730008ABB1BBA15BA84BB88BB17BA0E949E013C
:100740007894CDE7D3E0CE016BE370E040E00E9407
:10075000FC00D093CA00C093C900C5E7D3E0CE0126
:100760006BE370E041E00E94FC00D093CC00C093AA
:10077000CB00CDE6D3E0CE0165E370E041E00E941E
:10078000FC00D093CE00C093CD00C0E08091BE00AD
:100790008823E1F3CC2309F448C08DEE90E062E6B3
:1007A00070E00E9484048DEE90E00E943B028DEE8A
:1007B00090E068E670E00E9484048DEE90E00E9474
:1007C0003B028DEE90E067E770E00E9484048DEEBE
:1007D00090E00E943B028DEE90E068E870E00E949D
:1007E00084048DEE90E00E943B028DEE90E067E97C
:1007F00070E00E9484048DEE90E00E943B028DEE3A
:1008000090E068EA70E00E9484048DEE90E00E941F
:100810003B028DEE90E067EB70E00E9484048DEE69
:1008200090E00E943B02C0E007C0B49905C08091EF
:10083000BE00813009F4CFEFB0990FC08091C9009C
:100840009091CA0061E00E9422018091C9009091BC
:10085000CA0062E070E00E940E01B1990FC0809161
:10086000C9009091CA006FEF0E9422018091C900D7
:100870009091CA0062E070E00E940E01B2990FC030
:100880008091CD009091CE0061E00E942201809184
:10089000CD009091CE0062E070E00E940E01B3990D
:1008A00075CF8091CD009091CE006FEF0E94220114
:1008B0008091CD009091CE0062E070E00E940E0128
:1008C00065CFFC0188279927E89421912032E9F32C
:1008D000293010F02E30C8F32B3241F02D3239F48C
:1008E000689404C00E94B204820F911D219120538C
:1008F0002A30C0F31EF4909581959F4F08954BE6E2
:1009000053E00E948B040895FB01DC0101900D92DD
:100910000020E1F70895FA01A191B081009719F440
:100920001097E1F0CD01DC01CD010D90002011F414
:10093000C00113C0FB012191222319F02015D9F722
:10094000F3CFFB012191201519F41E92119606C0D8
:100950002223C1F70D900020A1F7D001FA01A19345
:10096000B08308957AE0979F902D879F802D910DF9
:0809700011240895F894FFCF53
:1009780020005520323030004C20302030203230DA
:10098800302033303000004C2032303020333030CB
:1009980020343030203000004C20343030203020DB
:1009A800302032303000004C2030203230302034BB
:1009B80030302032303000004C203430302032309B
:1009C8003020302030000044203230300002010155
:0809D8000204080804020100FA
:00000001FF
