:100000000C942A000C9447000C9447000C94470071
:100010000C9447000C94AC010C9447000C944700DE
:100020000C9447000C9447000C9447000C94380340
:100030000C9447000C949D000C94C8000C9447004D
:100040000C9447000C9447000C9447000C94470014
:100050000C94470011241FBECFE5D8E0DEBFCDBF12
:1000600010E0A0E6B0E0E2E8FFE002C005900D92EB
:10007000A038B107D9F713E0A0E8B0E001C01D92A5
:10008000AD3FB107E1F70E9417040C94BF070C9431
:1000900000001BB88AB188698AB980B5866880BDBE
:1000A00010BC89E189B91092A5001092A4001092A9
:1000B000A3001092A2001092A1001092A000089537
:1000C000F8948091A3008823B9F0E091A400F0E0B7
:1000D000EC55FD4F80819091A4009F5F9093A40008
:1000E0009091A4009F3F11F41092A4009091A3005E
:1000F00091509093A30001C080E078940895F89403
:100100009091A0009F3FB9F0E091A200F0E0EB5584
:10011000FE4F80838091A2008F5F8093A200809128
:10012000A2008F3F11F41092A2008091A0008F5F77
:100130008093A000559A789408951F920F920FB65D
:100140000F9211248F93EF93FF938091A3008F3F21
:10015000B9F0E091A500F0E08CB1EC55FD4F808343
:100160008091A5008F5F8093A5008091A5008F3FAF
:1001700011F41092A5008091A3008F5F8093A300DB
:10018000FF91EF918F910F900FBE0F901F901895D8
:100190001F920F920FB60F9211248F93EF93FF933C
:1001A0008091A000882301F18091A0008823E1F0D4
:1001B000E091A100F0E0EB55FE4F80818CB9809179
:1001C000A1008F5F8093A1008091A1008F3F11F467
:1001D0001092A1008091A00081508093A000809196
:1001E000A000882309F45598FF91EF918F910F900B
:1001F0000FBE0F901F901895FC01DB0140837783A1
:100200006683138212821582148211828091780093
:1002100040FF02C08295807F8C930895FC018FB7C8
:10022000F89413821282758364838FBF0895FC0152
:100230002FB7F89484819581860F971F95838483C7
:100240002FBF0895FC01808167FF02C08D7F01C030
:10025000826080830895FC019FB7F8948081A68115
:10026000B78180FF03C08C918F7002C08C91807F1A
:100270008C9313821282158214829FBF0895FC0111
:100280009FB7F89481E042815381248135814217E0
:10029000530708F480E09FBF08951F93CF93DF9327
:1002A000EC011FB7F8940E943F01882329F0CE018A
:1002B0000E942B011FBF3EC01FBF8881E1E081FD6E
:1002C000E0E0AE81BF8180FF14C08C918F708C9371
:1002D000AE81BF819C91F0E08981EE0FFF1FEE0F90
:1002E000FF1FE80FF11DE858FF4F80818295807F46
:1002F00011C08C91807F8C93AE81BF819C91F0E086
:100300008981EE0FFF1FEE0FFF1FE80FF11DE85868
:10031000FF4F8081892B8C9389818F5F8983843003
:1003200048F019822FB7F8948A819B8101969B83AC
:100330008A832FBFDF91CF911F91089589B7816084
:1003400089BF83B7826083BF089589B7806489BFFE
:1003500085B5846085BD08951F920F920FB60F92E8
:1003600011240F931F932F933F934F935F936F939A
:100370007F938F939F93AF93BF93CF93EF93FF930D
:10038000CFB7F89480918100853008F44DC080E0AB
:1003900090E0FC01EB55FC4F1082019680349105F2
:1003A000C1F72091A3008DB79EB70A970FB6F894B6
:1003B0009EBF0FBE8DBFEDB7FEB7319685EA93E0C5
:1003C000ADB7BEB712969C938E93119780E690E0DE
:1003D000938382832483158280918A0090918B007D
:1003E0009783868380918800909189009187808788
:1003F0000E94E8048DB79EB70A960FB6F8949EBF88
:100400000FBE8DBF00E010E0F801EB55FC4F80817E
:10041000882341F080810E947F000F5F1F4F0034CE
:10042000110591F710928100809181008F5F809378
:100430008100CFBFFF91EF91CF91BF91AF919F917D
:100440008F917F916F915F914F913F912F911F916C
:100450000F910F900FBE0F901F901895FF920F9362
:100460001F93CF93DF93EC01FB018A01A901FFB633
:10047000F89480917600992787FD9095C89FD001C8
:10048000C99FB00DD89FB00D1124B0939D00A093CB
:100490009C0070939B0060939A00089FB001099F95
:1004A000700D189F700D112470939900609398003F
:1004B0003093970020939600CB018A1B9B0B97FFEC
:1004C00003C0909581959F4F9093950080939400E1
:1004D0009A012E1B3F0B37FF03C0309521953F4FEC
:1004E0003093930020939200A617B70714F461E0AD
:1004F00001C06FEF60939100E417F50714F441E039
:1005000001C04FEF40939000821B930B90938F009C
:1005100080938E008FEF80939F0080918200909156
:1005200083000E9422018091840090918500609157
:1005300090000E942201FFBEDF91CF911F910F9189
:10054000FF900895CF93E6EAF0E08FEF119281508B
:10055000E9F7C0E00E946000EC2FF0E0EA55FF4FA1
:1005600080838823B9F38B3321F486EA90E0CF911E
:100570000895CF5FEFCFEF92FF920F931F93CF932A
:10058000DF93CDB7DEB728970FB6F894DEBF0FBE66
:10059000CDBF009709F45FC0209177002223E1F3DB
:1005A0007E010894E11CF11C28E0F70111922A95C4
:1005B000E9F764E770E00E94B404FC01009709F4D5
:1005C0004AC0108100E080E090E064E770E00E94A3
:1005D000B404009761F00E949604E02FF0E0EE0F63
:1005E000FF1FEE0DFF1D918380830F5FECCF1C3446
:1005F00029F0153599F0143471F510C06B817C81A8
:100600004D815E812F81388589819A810E942E02D9
:1006100081E080939E00109277001DC0809186003B
:1006200090918700153511F461E003C0143419F47A
:100630006FEF0E94220169817A81809186009091FA
:1006400087000E940E0180918600909187000E9491
:100650003F018823C1F328960FB6F894DEBF0FBE82
:10066000CDBFDF91CF911F910F91FF90EF90089533
:100670001F920F920FB60F9211242F933F934F9317
:100680005F936F937F938F939F93AF93BF93EF93FA
:10069000FF93809180008F3008F4B3C080919E005A
:1006A000882309F49AC0E0919C00F0919D0080910C
:1006B000980090919900E817F90761F420919A0049
:1006C00030919B00809196009091970028173907F0
:1006D00009F47DC020918E0030918F00C901880FF0
:1006E000991F90938D0080938C00409192005091BF
:1006F000930066277727641B750B681779074CF5FD
:10070000241B350B30938F0020938E008091910035
:10071000992787FD9095E80FF91FF0939D00E093CE
:100720009C0020918A0030918B00280F391F309354
:100730008B0020938A00809182009091830061E079
:1007400070E00E940E0180918200909183000E94CF
:100750004D01209194003091950080918C009091F2
:100760008D00821793070CF044C080918E00909109
:100770008F00820F931F90938F0080938E002091A3
:100780009000332727FD309580919A0090919B002F
:10079000820F931F90939B0080939A008091880012
:1007A00090918900820F931F909389008093880015
:1007B000809184009091850061E070E00E940E01BC
:1007C00080918400909185000E944D0112C010928A
:1007D0009E0081E0809377000CC08091840090910E
:1007E00085000E942B0180918200909183000E94DD
:1007F0002B0180918600909187000E944D011092FC
:100800008000809180008F5F80938000FF91EF9146
:10081000BF91AF919F918F917F916F915F914F9118
:100820003F912F910F900FBE0F901F9018958FEF53
:100830008ABB1BBA15BA84BB88BB17BA0E949E013B
:100840000E94A5010E9449007894C5EFD3E0CE0133
:100850006BE370E040E00E94FC00D0938300C09303
:100860008200CDEED3E0CE016BE370E041E00E9468
:10087000FC00D0938500C0938400C5EED3E0CE0188
:1008800065E370E041E00E94FC00D0938700C093D4
:1008900086000E94A2020E94BB02809177008823FA
:1008A000C1F3B0990FC0809182009091830061E004
:1008B0000E942201809182009091830062E070E0AA
:1008C0000E940E01B1990FC0809182009091830027
:1008D0006FEF0E942201809182009091830062E07C
:1008E00070E00E940E01B2990FC080918600909135
:1008F000870061E00E94220180918600909187002C
:1009000062E070E00E940E01B399C3CF809186002F
:10091000909187006FEF0E94220180918600909154
:10092000870062E070E00E940E01B3CFFC018827CF
:100930009927E89421912032E9F3293010F02E30E4
:10094000C8F32B3241F02D3239F4689404C00E9470
:10095000E004820F911D219120532A30C0F31EF430
:10096000909581959F4F089543EA53E00E94B90402
:100970000895FA01A191B081009719F41097E1F060
:10098000CD01DC01CD010D90002011F4C00113C098
:10099000FB012191222319F02015D9F7F3CFFB0198
:1009A0002191201519F41E92119606C02223C1F739
:1009B0000D900020A1F7D001FA01A193B083089512
:1009C0007AE0979F902D879F802D910D1124089597
:1009D000AEE0B0E0EEEEF4E00C9496070D891E89CF
:1009E00086E08C831A8309838FEF9FE79E838D8334
:1009F000AE01475E5F4FCE0101966F89788D0E94F0
:100A00000A05EF81F885E00FF11F10822E96E4E0D1
:100A10000C94B207ADE0B0E0E0E1F5E00C9488079B
:100A20003C017D876C875A01FC0117821682838105
:100A300081FFC8C12E010894411C511CF301938110
:100A4000EC85FD8593FD859193FF8191FD87EC8772
:100A5000882309F4B3C1853241F493FD859193FF56
:100A60008191FD87EC87853229F490E0B3010E94E3
:100A7000FE06E4CFFF24EE2410E01032B0F48B32F7
:100A800069F08C3228F4803251F0833271F40BC05B
:100A90008D3239F0803349F411602CC0126014603B
:100AA00029C0186027C0106125C017FD2EC0282F4F
:100AB00020532A3098F416FF08C08F2D880FF82E87
:100AC000FF0CFF0CF80EF20E15C08E2D880FE82ECD
:100AD000EE0CEE0CE80EE20E10620CC08E3221F429
:100AE00016FD6CC1106406C08C3611F4106802C08B
:100AF000883659F4EC85FD8593FD859193FF8191AE
:100B0000FD87EC87882309F0B8CF982F9554933050
:100B100018F09052933038F424E030E0A20EB31E67
:100B20003FE339830FC0833631F0833781F083355B
:100B300009F05AC022C0F5018081898322E030E0AB
:100B4000A20EB31E21E0C22ED12C420114C092E0AD
:100B5000292E312C2A0C3B1CF5018080918016FF38
:100B600003C06F2D70E002C06FEF7FEFC4010E94E1
:100B7000F3066C0151011F7715C082E0282E312C3D
:100B80002A0C3B1CF5018080918016FF03C06F2D5D
:100B900070E002C06FEF7FEFC4010E94E8066C01B5
:100BA0001068510113FD1CC006C080E290E0B30143
:100BB0000E94FE06EA948E2D90E0C816D906A8F38E
:100BC0000FC0F40117FD859117FF81914F0190E04F
:100BD000B3010E94FE06E110EA940894C108D1080E
:100BE000C114D10471F7E7C0843611F0893651F58C
:100BF000F50117FF07C080819181A281B38124E0B4
:100C000030E008C080819181AA2797FDA095BA2F76
:100C100022E030E0A20EB31E012F0F76B7FF08C00E
:100C2000B095A095909581959F4FAF4FBF4F0068AD
:100C3000BC01CD01A2012AE030E00E942A07D82E93
:100C4000D4183FC0853721F41F7E2AE030E020C051
:100C5000197F8F36A9F0803720F4883509F0AEC0AF
:100C60000BC0803721F0883709F0A8C001C010619F
:100C700014FF09C0146007C014FF08C0166006C046
:100C800028E030E005C020E130E002C020E132E0A1
:100C9000F50117FF07C0608171818281938144E073
:100CA00050E006C06081718180E090E042E050E059
:100CB000A40EB51EA2010E942A07D82ED418012F17
:100CC0000F7706FF09C00E7FDF1430F404FF06C063
:100CD00002FD04C00F7E02C01D2D01C01F2D802FFC
:100CE00090E004FF0CC0FE01ED0DF11D20812033CA
:100CF00011F4097E09C002FF06C01E5F05C0867898
:100D00009070009709F01F5F802E992403FD12C098
:100D100000FF0DC0FD2C1E1550F4FE0CF11A1E2D07
:100D200006C080E290E0B3010E94FE061F5F1E1520
:100D3000C0F304C01E1510F4E11A01C0EE2484FEB5
:100D40000FC080E390E0B3010E94FE0682FE1FC048
:100D500081FE03C088E590E010C088E790E00DC0F8
:100D6000C40186789070009791F081FC02C080E207
:100D700001C08BE207FD8DE290E0B3010E94FE0608
:100D800006C080E390E0B3010E94FE06FA94DF14EF
:100D9000C0F3DA94F201ED0DF11D808190E0B30112
:100DA0000E94FE06DD20A9F706C080E290E0B301B4
:100DB0000E94FE06EA94EE20C1F740CEF301868140
:100DC000978102C08FEF9FEF2D96E2E10C94A4076C
:100DD000FC010590615070400110D8F78095909506
:100DE0008E0F9F1F0895FC0161507040019001100B
:100DF000D8F7809590958E0F9F1F08950F931F939E
:100E0000CF93DF938C01EB018B8181FF1BC082FFAD
:100E10000DC02E813F818C819D812817390764F494
:100E2000E881F9810193F983E88306C0E885F985B3
:100E3000802F0995009731F48E819F8101969F83C1
:100E40008E8302C00FEF1FEFC801DF91CF911F917A
:100E50000F910895FA01AA27283051F1203181F12C
:100E6000E8946F936E7F6E5F7F4F8F4F9F4FAF4FB2
:100E7000B1E03ED0B4E03CD0670F781F891F9A1FC5
:100E8000A11D680F791F8A1F911DA11D6A0F711D79
:100E9000811D911DA11D20D009F468943F912AE085
:100EA000269F11243019305D3193DEF6CF0108956D
:100EB000462F4770405D4193B3E00FD0C9F7F6CF9E
:100EC000462F4F70405D4A3318F0495D31FD405266
:100ED000419302D0A9F7EACFB4E0A69597958795FC
:100EE00077956795BA95C9F70097610571050895DB
:100EF0009B01AC010A2E0694579547953795279587
:100F0000BA95C9F7620F731F841F951FA01D08951E
:100F10002F923F924F925F926F927F928F929F9209
:100F2000AF92BF92CF92DF92EF92FF920F931F93F7
:100F3000CF93DF93CDB7DEB7CA1BDB0B0FB6F894A8
:100F4000DEBF0FBECDBF09942A88398848885F84E8
:100F50006E847D848C849B84AA84B984C884DF8059
:100F6000EE80FD800C811B81AA81B981CE0FD11D3D
:100F70000FB6F894DEBF0FBECDBFED010895F89413
:020F8000FFCFA1
:100F8200532025643B20582025643B2059202564AA
:100F92003B0A0D002000020103060C09090C06039E
:00000001FF
