:100000000C942A000C9447000C9447000C94470071
:100010000C9447000C9447000C9447000C94470044
:100020000C9447000C9447000C9447000C94BF02BA
:100030000C9447000C949D000C94C8000C9447004D
:100040000C9447000C9447000C9447000C94470014
:100050000C94470011241FBECFE5D8E0DEBFCDBF12
:1000600010E0A0E6B0E0EEEDF8E002C005900D92E1
:10007000AC36B107D9F713E0ACE6B0E001C01D9291
:10008000A932B107E1F70E949E030C946D040C9411
:1000900000001BB88AB188698AB980B5866880BDBE
:1000A00010BC83E389B91092900010928F001092D7
:1000B0008E0010928D0010928C0010928B0008958B
:1000C000F89480918E008823B9F0E0918F00F0E0E1
:1000D000E05FFD4F808190918F009F5F90938F0034
:1000E00090918F009F3F11F410928F0090918E009D
:1000F000915090938E0001C080E078940895F89418
:1001000090918B0097FD17C0E0918D00F0E0E057D3
:10011000FE4F808380918D008F5F80938D00809152
:100120008D00803811F410928D0080918B008F5FCC
:1001300080938B00559A789408951F920F920FB672
:100140000F9211248F93EF93FF9380918E008F3F36
:10015000B9F0E0919000F0E08CB1E05FFD4F80835A
:10016000809190008F5F80939000809190008F3FEE
:1001700011F41092900080918E008F5F80938E001A
:10018000FF91EF918F910F900FBE0F901F901895D8
:100190001F920F920FB60F9211248F93EF93FF933C
:1001A00080918B00882301F180918B008823E1F0FE
:1001B000E0918C00F0E0E057FE4F80818CB9809197
:1001C0008C008F5F80938C0080918C00803811F4BC
:1001D00010928C0080918B00815080938B008091D5
:1001E0008B00882309F45598FF91EF918F910F9020
:1001F0000FBE0F901F901895FC01DB0140837783A1
:1002000066831382128215821482118280916400A7
:1002100040FF02C08295807F8C930895FC018FB7C8
:10022000F89413821282758364838FBF0895FC0152
:100230002FB7F89484819581860F971F95838483C7
:100240002FBF0895FC01808167FF02C08D7F01C030
:10025000826080830895FC019FB7F8948081A68115
:10026000B78180FF03C08C918F7002C08C91807F1A
:100270008C9313821282158214829FBF0895FC0111
:100280009FB7F89481E042815381248135814217E0
:10029000530708F480E09FBF08951F93CF93DF9327
:1002A000EC011FB7F8940E943F01882329F0CE018A
:1002B0000E942B011FBF3EC01FBF8881E1E081FD6E
:1002C000E0E0AE81BF8180FF14C08C918F708C9371
:1002D000AE81BF819C91F0E08981EE0FFF1FEE0F90
:1002E000FF1FE80FF11DEC59FF4F80818295807F41
:1002F00011C08C91807F8C93AE81BF819C91F0E086
:100300008981EE0FFF1FEE0FFF1FE80FF11DEC5963
:10031000FF4F8081892B8C9389818F5F8983843003
:1003200048F019822FB7F8948A819B8101969B83AC
:100330008A832FBFDF91CF911F91089589B7816084
:1003400089BF83B7826083BF0895FF920F931F9385
:10035000CF93DF93EC01FB018A01A901FFB6F8946A
:1003600080916200992787FD9095C89FD001C99F11
:10037000B00DD89FB00D1124B0938800A0938700D2
:100380007093860060938500089FB001099F700DEF
:10039000189F700D11247093840060938300309334
:1003A000820020938100CB018A1B9B0B97FF03C027
:1003B000909581959F4F9093800080937F009A0144
:1003C0002E1B3F0B37FF03C0309521953F4F3093D5
:1003D0007E0020937D00A617B70714F461E001C0EA
:1003E0006FEF60937C00E417F50714F441E001C05F
:1003F0004FEF40937B00821B930B90937A00809386
:1004000079008FEF80938A0080916D0090916E004B
:100410000E94220180916F009091700060917B009A
:100420000E942201FFBEDF91CF911F910F91FF909B
:100430000895CF93E1E9F0E08FEF11928150E9F751
:10044000C0E00E946000EC2FF0E0EF56FF4F808389
:100450008823B9F38B3321F481E990E0CF9108959B
:100460000E947F00CF5FEDCFDF92EF92FF920F935C
:100470001F93CF93DF93CDB7DEB728970FB6F894CD
:10048000DEBF0FBECDBF8C01009709F46AC080911A
:1004900063008823E1F378015FE7D52EF7018191AE
:1004A0007F010E947F00DA94C9F77E010894E11C65
:1004B000F11C88E0F70111928A95E9F7C80160E61E
:1004C00070E00E943904FC01009709F44AC00081E1
:1004D00010E080E090E060E670E00E943904009750
:1004E00061F00E941B04E12FF0E0EE0FFF1FEE0D04
:1004F000FF1D918380831F5FECCF0C3429F00535FD
:1005000099F0043471F510C06B817C814D815E815E
:100510002F81388589819A810E94A50181E080938D
:100520008900109263001DC080917100909172004B
:10053000053511F461E003C0043419F46FEF0E9433
:10054000220169817A8180917100909172000E94EC
:100550000E0180917100909172000E943F018823EA
:10056000C1F328960FB6F894DEBF0FBECDBFDF9162
:10057000CF911F910F91FF90EF90DF9008951F9200
:100580000F920FB60F9211241F932F933F934F9307
:100590005F936F937F938F939F93AF93BF93CF930B
:1005A000DF93EF93FF9380916C008F3008F4ADC020
:1005B00080918900882309F49AC0E0918700F09126
:1005C00088008091830090918400E817F90761F416
:1005D0002091850030918600809181009091820069
:1005E0002817390709F47DC02091790030917A00ED
:1005F000C901880F991F90937800809377004091EC
:100600007D0050917E0066277727641B750B681765
:1006100079074CF5241B350B30937A002093790031
:1006200080917C00992787FD9095E80FF91FF09342
:100630008800E09387002091750030917600280FA4
:10064000391F309376002093750080916D00909152
:100650006E0061E070E00E940E0180916D0090914B
:100660006E000E944D0120917F00309180008091AA
:10067000770090917800821793070CF044C0809126
:10068000790090917A00820F931F90937A00809363
:10069000790020917B00332727FD309580918500DC
:1006A00090918600820F931F90938600809385001F
:1006B0008091730090917400820F931F9093740047
:1006C0008093730080916F009091700061E070E002
:1006D0000E940E0180916F00909170000E944D0168
:1006E00012C01092890081E0809363000CC0CDE6B7
:1006F000D0E010E089919991009711F00E944D018E
:100700001F5F1330B9F710926C0080916C008F5FFF
:1007100080936C00FF91EF91DF91CF91BF91AF91EA
:100720009F918F917F916F915F914F913F912F9109
:100730001F910F900FBE0F901F9018958FEF8ABBDF
:100740001BBA15BA84BB88BB17BA0E949E010E94CF
:1007500049007894C1E2D3E0CE016BE370E040E061
:100760000E94FC00D0936E00C0936D00C9E1D3E0FD
:10077000CE016BE370E041E00E94FC00D09370007A
:10078000C0936F00C1E1D3E0CE0165E370E041E0CA
:100790000E94FC00D0937200C09371000E94190265
:1007A0000E943402809163008823C1F3B0990FC086
:1007B00080916D0090916E0061E00E942201809115
:1007C0006D0090916E0062E070E00E940E01B199A0
:1007D0000FC080916D0090916E006FEF0E9422011A
:1007E00080916D0090916E0062E070E00E940E01B9
:1007F000B2990FC0809171009091720061E00E94E7
:100800002201809171009091720062E070E00E947C
:100810000E01B399C3CF80917100909172006FEF78
:100820000E942201809171009091720062E070E05C
:100830000E940E01B3CFFC0188279927E8942191EB
:100840002032E9F3293010F02E30C8F32B3241F07A
:100850002D3239F4689404C00E946504820F911D02
:10086000219120532A30C0F31EF4909581959F4F1B
:1008700008954FE053E00E943E040895FA01A191CB
:10088000B081009719F41097E1F0CD01DC01CD01A2
:100890000D90002011F4C00113C0FB01219122230F
:1008A00019F02015D9F7F3CFFB012191201519F488
:1008B0001E92119606C02223C1F70D900020A1F7C9
:1008C000D001FA01A193B08308957AE0979F902D0B
:0E08D000879F802D910D11240895F894FFCF7D
:0C08DE00200002010102040808040201CD
:00000001FF
