:100000000C942A000C9447000C9447000C94470071
:100010000C9447000C9447000C9447000C94470044
:100020000C9447000C9447000C9447000C94AC02CD
:100030000C9447000C941E010C944C010C94470046
:100040000C9447000C9447000C9447000C94470014
:100050000C94470011241FBECFE5D8E0DEBFCDBF12
:1000600010E0A0E6B0E0ECEAFAE002C005900D92E4
:10007000A63BB107D9F713E0A6EBB0E001C01D9293
:10008000A53FB107E1F70E94CB030C9454050C94F3
:1000900000001F93CF93DF93FC01D9011FB7F894A1
:1000A0008091B700803108F048C08091B80090E09E
:1000B00025E733E0880F991F880F991F880F991F34
:1000C000820F931FEC01F983E883E091B800F0E020
:1000D000EE0FFF1FEE0FFF1FEE0FFF1FE20FF31FCC
:1000E00073836283E091B800F0E0EE0FFF1FEE0F24
:1000F000FF1FEE0FFF1FE20FF31F55834483809114
:10010000B80090E0880F991F880F991F880F991FDA
:10011000280F391FF901B783A6838091B8008F5F3C
:100120008093B8008091B7008F5F8093B700809173
:10013000B800803111F41092B8001FBFDF91CF9149
:100140001F9108952FB7F8948091B7008823E1F0AC
:100150008091B9009091B9009F5F9093B900909100
:10016000B70091509093B7009091B900903111F47D
:100170001092B90090E0880F991F880F991F880F7F
:10018000991F8B589C4F02C080E090E02FBF0895CC
:100190001BB88AB188698AB980B5866880BD10BCF1
:1001A00083E389B91092DC001092DB001092DA0030
:1001B0001092D9001092D8001092D7000895F894A8
:1001C0008091DA008823C1F08091DB00ECE5F2E059
:1001D000E80FF11D80819091DB009F5F9093DB0021
:1001E0009091DB009F3F11F41092DB009091DA00B8
:1001F00091509093DA0001C080E078940895F894CB
:100200009091D7009923C4F09091D900ECEDF1E0E2
:10021000E90FF11D80838091D9008F5F8093D90011
:100220008091D900803811F41092D9008091D700C4
:100230008F5F8093D700559A789408951F920F92FC
:100240000FB60F9211248F939F93EF93FF9380919A
:10025000DA008F3FC1F09091DC008CB1ECE5F2E068
:10026000E90FF11D80838091DC008F5F8093DC00BB
:100270008091DC008F3F11F41092DC008091DA0055
:100280008F5F8093DA00FF91EF919F918F910F9094
:100290000FBE0F901F9018951F920F920FB60F92DE
:1002A00011248F93EF93FF938091D700882309F156
:1002B0008091D7008823E9F08091D800ECEDF1E03F
:1002C000E80FF11D80818CB98091D8008F5F8093F9
:1002D000D8008091D800803811F41092D800809115
:1002E000D70081508093D7008091D700882309F4EC
:1002F0005598FF91EF918F910F900FBE0F901F9027
:100300001895FC01408377836683138212821582DD
:100310001482118240FF07C08091AE008295807FD9
:10032000FB01808308958091AE00FB0180830895D6
:10033000FC018FB7F89413821282758364838FBF98
:100340000895FC01CB012FB7F89464817581680F83
:10035000791F758364832FBF0895FC01662324F4FD
:1003600080818D7F8083089580818260808308955D
:10037000EF92FF920F931F93CF937C01DB01F90162
:10038000CFB7F8948091AD00992787FD90958E9D09
:1003900080018F9D100D9E9D100D11241093D5008E
:1003A0000093D4007093D3006093D200849FB00177
:1003B000859F700D949F700D11247093D1006093F0
:1003C000D0003093CF002093CE00CB01801B910B47
:1003D0001AF4909581959F4FAC019093CD00809336
:1003E000CC00CF018A1B9B0B1AF4909581959F4FEF
:1003F0009C019093CB008093CA000617170714F452
:1004000061E001C06FEF6093C900AE17BF0714F43D
:1004100081E001C08FEF8093C800421B530B5093C3
:10042000C7004093C6008FEF8093D6008091BA003A
:100430009091BB000E94AD018091BC009091BD00E5
:100440006091C8000E94AD01CFBFCF911F910F9165
:10045000FF90EF900895FC018FB7F894908190FF82
:1004600006C0A681B7819C919F709C9305C0A68110
:10047000B7819C91907F9C93138212821582148283
:100480008FBF0895FC019FB7F89481E042815381AA
:10049000248135814217530708F480E09FBF0895F7
:1004A0001F93CF93DF93EC011FB7F8940E94420291
:1004B000882329F0CE010E942B021FBF42C01FBF1C
:1004C0008881A1E081FDA0E080FF18C0EE81FF815E
:1004D00080818F708083EE81FF819081B0E089817F
:1004E000AA0FBB1FAA0FBB1FA80FB11DA255BF4F5C
:1004F0008C918295807F892B808315C0EE81FF814E
:100500008081807F8083EE81FF818081B0E099814E
:10051000AA0FBB1FAA0FBB1FA90FB11DA255BF4F2A
:100520009C91892B808389818F5F8983843048F0F7
:1005300019822FB7F8948A819B8101969B838A83C5
:100540002FBFDF91CF911F91089589B7816089BF37
:1005500083B7826083BF08951F920F920FB60F92E8
:1005600011240F931F932F933F934F935F936F9398
:100570007F938F939F93AF93BF93CF93DF93EF932B
:10058000FF938091B6008F30C0F12091D40030915C
:10059000D5008091D0009091D10028173907E9F457
:1005A0002091D2003091D3008091CE009091CF0065
:1005B0002817390791F40E94A200FC01009759F016
:1005C0006281738144815581268137818081918147
:1005D0000E94B80102C01092D600CAEBD0E08E0192
:1005E0000A5F1F4F89919991009711F00E94500264
:1005F000C017D107B9F71092B6008091B6008F5F8F
:100600008093B600FF91EF91DF91CF91BF91AF91B1
:100610009F918F917F916F915F914F913F912F911A
:100620001F910F910F900FBE0F901F901895CF93B1
:10063000DF9380E090E040E050E02CE532E0F9010B
:10064000E80FF91F6081662319F4AC01445A5D4F2D
:1006500001968F3F910599F74115510519F480E0F6
:1006600090E00FC0EDEDF0E08CED91E01192E81715
:10067000F907E1F7CDEDD0E00E94DF008883882301
:10068000D9F7DF91CF910895EF92FF920F931F93C7
:10069000CF93DF93CDB7DEB728970FB6F894DEBFC0
:1006A0000FBECDBF009709F469C0FE01319628E066
:1006B000DF011D922A95E9F760E670E00E942005AF
:1006C000E82FF92F309709F459C0008110E00F2E60
:1006D000F0E6EF2EF0E0FF2EF02D80E090E0B70185
:1006E0000E942005282F392F2115310589F0C901D5
:1006F0000E940205E12FF0E0EE0FFF1F21E030E045
:100700002C0F3D1FE20FF31F918380831F5FE5CF06
:100710000C3429F0053571F0043481F50BC06B8180
:100720007C814D815E812F81388589819A810E94EB
:10073000490024C0053541F48091BE009091BF006E
:1007400061E00E94AD0109C0043439F48091BE001B
:100750009091BF006FEF0E94AD0169817A81809115
:10076000BE009091BF000E9498010EEB10E0D801EE
:100770008D919C910E9442028823C9F328960FB65E
:10078000F894DEBF0FBECDBFDF91CF911F910F91C7
:10079000FF90EF9008958FEF8ABB1BBA15BA84BB08
:1007A00088BB17BA0E94A5027894CDE6D3E0CE01AB
:1007B0006BE370E040E00E948101D093BB00C093E6
:1007C000BA00C5E6D3E0CE016BE370E041E00E94E1
:1007D0008101D093BD00C093BC00CDE5D3E0CE0134
:1007E00065E370E041E00E948101D093BF00C093B7
:1007F000BE00DD240CEB10E0CAEBD0E00F2EFEEBC8
:10080000EF2EF0E0FF2EF02D0F2EFDEDAF2EF0E0DD
:10081000BF2EF02D0F2EF2E68F2EF0E09F2EF02D42
:100820000F2EFEE0CF2EF02D77248091D600882366
:1008300009F494C06091D4007091D5008091D000EB
:100840009091D1006817790761F48091D20090915E
:10085000D3002091CE003091CF008217930709F486
:100860007DC08091C6009091C700880F991F90931A
:10087000C5008093C4004091CA005091CB0022274C
:100880003327241B350B2817390764F58091C600E0
:100890009091C700841B950B9093C7008093C6006E
:1008A0002091C900332727FD3095CB01820F931F7C
:1008B0009093D5008093D4008091C2009091C300A2
:1008C000820F931F9093C3008093C2008881998107
:1008D00061E070E00E949801888199810E94420243
:1008E0008823D1F32091CC003091CD008091C400B9
:1008F0009091C500821793078CF58091C600909166
:10090000C700820F931F9093C7008093C600209169
:10091000C800332727FD30958091D2009091D300F5
:10092000820F931F9093D3008093D2008091C000D8
:100930009091C100820F931F9093C1008093C000DB
:10094000F8018081918161E070E00E949801F801D6
:10095000808191810E9442028823C9F38091D60050
:10096000882309F062CFDD2061F0F501D4018C2DE0
:100970000D9001928150E1F7C5010E944403D72CEC
:1009800008C0B49906C08091B700882311F4DD2413
:10099000DA94B0990BC08881998161E00E94AD0121
:1009A0008881998162E070E00E949801B1990BC042
:1009B000888199816FEF0E94AD018881998162E001
:1009C00070E00E949801B2990DC0F7018081918179
:1009D00061E00E94AD01F7018081918162E070E0E9
:1009E0000E949801B39921CFF701808191816FEF27
:1009F0000E94AD01F7018081918162E070E00E9468
:100A0000980113CFFC0188279927E894219120327F
:100A1000E9F3293010F02E30C8F32B3241F02D329B
:100A200039F4689404C00E944C05820F911D2191F5
:100A300020532A30C0F31EF4909581959F4F08955E
:100A40004BE553E00E9425050895FA01A191B0817C
:100A5000009719F41097E1F0CD01DC01CD010D9064
:100A6000002011F4C00113C0FB012191222319F0D1
:100A70002015D9F7F3CFFB012191201519F41E920F
:100A8000119606C02223C1F70D900020A1F7D001D6
:100A9000FA01A193B08308957AE0979F902D879FE4
:0C0AA000802D910D11240895F894FFCFD3
:100AAC0020004C20302030203230302033303000C9
:100ABC004C20323030203330302034303020300075
:100ACC004C203430302030203020323030004C205C
:100ADC0030203230302034303020323030004C2056
:100AEC00343030203230302030203000000201020F
:060AFC00040808040201D9
:00000001FF
